{
  "_format": "hh-sol-artifact-1",
  "contractName": "Twitter",
  "sourceName": "contracts/Twitter.sol",
  "abi": [
    {
      "inputs": [],
      "stateMutability": "payable",
      "type": "constructor"
    },
    {
      "anonymous": false,
      "inputs": [
        {
          "indexed": false,
          "internalType": "uint256",
          "name": "_id",
          "type": "uint256"
        },
        {
          "indexed": false,
          "internalType": "uint256",
          "name": "_likes",
          "type": "uint256"
        }
      ],
      "name": "LikeTweet",
      "type": "event"
    },
    {
      "anonymous": false,
      "inputs": [
        {
          "indexed": true,
          "internalType": "address",
          "name": "_from",
          "type": "address"
        },
        {
          "indexed": false,
          "internalType": "uint256",
          "name": "_id",
          "type": "uint256"
        },
        {
          "indexed": false,
          "internalType": "uint256",
          "name": "_timestamp",
          "type": "uint256"
        },
        {
          "indexed": false,
          "internalType": "string",
          "name": "_text",
          "type": "string"
        }
      ],
      "name": "NewTweet",
      "type": "event"
    },
    {
      "anonymous": false,
      "inputs": [
        {
          "indexed": false,
          "internalType": "uint256",
          "name": "_id",
          "type": "uint256"
        },
        {
          "indexed": false,
          "internalType": "uint256",
          "name": "_likes",
          "type": "uint256"
        }
      ],
      "name": "UnlikeTweet",
      "type": "event"
    },
    {
      "inputs": [
        {
          "internalType": "string",
          "name": "_text",
          "type": "string"
        }
      ],
      "name": "createTweet",
      "outputs": [],
      "stateMutability": "nonpayable",
      "type": "function"
    },
    {
      "inputs": [],
      "name": "getAllTweets",
      "outputs": [
        {
          "components": [
            {
              "internalType": "address",
              "name": "owner",
              "type": "address"
            },
            {
              "internalType": "uint256",
              "name": "id",
              "type": "uint256"
            },
            {
              "internalType": "uint256",
              "name": "timestamp",
              "type": "uint256"
            },
            {
              "internalType": "uint256",
              "name": "likes",
              "type": "uint256"
            },
            {
              "internalType": "string",
              "name": "text",
              "type": "string"
            }
          ],
          "internalType": "struct Twitter.Tweet[]",
          "name": "",
          "type": "tuple[]"
        }
      ],
      "stateMutability": "view",
      "type": "function"
    },
    {
      "inputs": [
        {
          "internalType": "uint256",
          "name": "_id",
          "type": "uint256"
        }
      ],
      "name": "getLikesForTweet",
      "outputs": [
        {
          "internalType": "address[]",
          "name": "",
          "type": "address[]"
        }
      ],
      "stateMutability": "view",
      "type": "function"
    },
    {
      "inputs": [
        {
          "internalType": "address",
          "name": "_owner",
          "type": "address"
        }
      ],
      "name": "getOwnerTweetCount",
      "outputs": [
        {
          "internalType": "uint256",
          "name": "",
          "type": "uint256"
        }
      ],
      "stateMutability": "view",
      "type": "function"
    },
    {
      "inputs": [
        {
          "internalType": "address",
          "name": "_owner",
          "type": "address"
        }
      ],
      "name": "getOwnerTweets",
      "outputs": [
        {
          "components": [
            {
              "internalType": "address",
              "name": "owner",
              "type": "address"
            },
            {
              "internalType": "uint256",
              "name": "id",
              "type": "uint256"
            },
            {
              "internalType": "uint256",
              "name": "timestamp",
              "type": "uint256"
            },
            {
              "internalType": "uint256",
              "name": "likes",
              "type": "uint256"
            },
            {
              "internalType": "string",
              "name": "text",
              "type": "string"
            }
          ],
          "internalType": "struct Twitter.Tweet[]",
          "name": "",
          "type": "tuple[]"
        }
      ],
      "stateMutability": "view",
      "type": "function"
    },
    {
      "inputs": [
        {
          "internalType": "uint256",
          "name": "_id",
          "type": "uint256"
        }
      ],
      "name": "getTweet",
      "outputs": [
        {
          "components": [
            {
              "internalType": "address",
              "name": "owner",
              "type": "address"
            },
            {
              "internalType": "uint256",
              "name": "id",
              "type": "uint256"
            },
            {
              "internalType": "uint256",
              "name": "timestamp",
              "type": "uint256"
            },
            {
              "internalType": "uint256",
              "name": "likes",
              "type": "uint256"
            },
            {
              "internalType": "string",
              "name": "text",
              "type": "string"
            }
          ],
          "internalType": "struct Twitter.Tweet",
          "name": "",
          "type": "tuple"
        }
      ],
      "stateMutability": "view",
      "type": "function"
    },
    {
      "inputs": [
        {
          "internalType": "uint256",
          "name": "",
          "type": "uint256"
        },
        {
          "internalType": "address",
          "name": "",
          "type": "address"
        }
      ],
      "name": "isTweetLikedByAddress",
      "outputs": [
        {
          "internalType": "bool",
          "name": "",
          "type": "bool"
        }
      ],
      "stateMutability": "view",
      "type": "function"
    },
    {
      "inputs": [
        {
          "internalType": "address",
          "name": "",
          "type": "address"
        }
      ],
      "name": "lastWavedAt",
      "outputs": [
        {
          "internalType": "uint256",
          "name": "",
          "type": "uint256"
        }
      ],
      "stateMutability": "view",
      "type": "function"
    },
    {
      "inputs": [
        {
          "internalType": "uint256",
          "name": "_id",
          "type": "uint256"
        }
      ],
      "name": "like",
      "outputs": [],
      "stateMutability": "nonpayable",
      "type": "function"
    },
    {
      "inputs": [
        {
          "internalType": "address",
          "name": "",
          "type": "address"
        }
      ],
      "name": "ownerToTweetCount",
      "outputs": [
        {
          "internalType": "uint256",
          "name": "",
          "type": "uint256"
        }
      ],
      "stateMutability": "view",
      "type": "function"
    },
    {
      "inputs": [
        {
          "internalType": "uint256",
          "name": "",
          "type": "uint256"
        },
        {
          "internalType": "uint256",
          "name": "",
          "type": "uint256"
        }
      ],
      "name": "tweetIdToLikeAddresses",
      "outputs": [
        {
          "internalType": "address",
          "name": "",
          "type": "address"
        }
      ],
      "stateMutability": "view",
      "type": "function"
    },
    {
      "inputs": [
        {
          "internalType": "uint256",
          "name": "",
          "type": "uint256"
        }
      ],
      "name": "tweetToOwner",
      "outputs": [
        {
          "internalType": "address",
          "name": "",
          "type": "address"
        }
      ],
      "stateMutability": "view",
      "type": "function"
    },
    {
      "inputs": [
        {
          "internalType": "uint256",
          "name": "",
          "type": "uint256"
        }
      ],
      "name": "tweets",
      "outputs": [
        {
          "internalType": "address",
          "name": "owner",
          "type": "address"
        },
        {
          "internalType": "uint256",
          "name": "id",
          "type": "uint256"
        },
        {
          "internalType": "uint256",
          "name": "timestamp",
          "type": "uint256"
        },
        {
          "internalType": "uint256",
          "name": "likes",
          "type": "uint256"
        },
        {
          "internalType": "string",
          "name": "text",
          "type": "string"
        }
      ],
      "stateMutability": "view",
      "type": "function"
    }
  ],
  "bytecode": "0x6080604052606444426200001491906200002c565b62000020919062000093565b60068190555062000129565b6000620000398262000089565b9150620000468362000089565b9250827fffffffffffffffffffffffffffffffffffffffffffffffffffffffffffffffff038211156200007e576200007d620000cb565b5b828201905092915050565b6000819050919050565b6000620000a08262000089565b9150620000ad8362000089565b925082620000c057620000bf620000fa565b5b828206905092915050565b7f4e487b7100000000000000000000000000000000000000000000000000000000600052601160045260246000fd5b7f4e487b7100000000000000000000000000000000000000000000000000000000600052601260045260246000fd5b6124e680620001396000396000f3fe608060405234801561001057600080fd5b50600436106100cf5760003560e01c8063c3ad5ecb1161008c578063e82935da11610066578063e82935da1461025e578063e8d857b01461027a578063e946a89d146102ae578063f4dde622146102de576100cf565b8063c3ad5ecb146101ce578063d4b6b228146101fe578063dbd298391461022e576100cf565b806341e0d306146100d4578063532561351461010457806376155904146101225780637c9cd2bc14610152578063996a5d2e1461016e578063a42a46631461019e575b600080fd5b6100ee60048036038101906100e991906118ef565b61030e565b6040516100fb9190611cfc565b60405180910390f35b61010c610341565b6040516101199190611d93565b60405180910390f35b61013c600480360381019061013791906118ef565b610561565b6040516101499190611d71565b60405180910390f35b61016c600480360381019061016791906118ae565b610602565b005b61018860048036038101906101839190611954565b610a6e565b6040516101959190611cfc565b60405180910390f35b6101b860048036038101906101b39190611885565b610abc565b6040516101c59190611e72565b60405180910390f35b6101e860048036038101906101e391906118ef565b610ad4565b6040516101f59190611e50565b60405180910390f35b61021860048036038101906102139190611885565b610c07565b6040516102259190611e72565b60405180910390f35b61024860048036038101906102439190611918565b610c50565b6040516102559190611db5565b60405180910390f35b610278600480360381019061027391906118ef565b610c7f565b005b610294600480360381019061028f91906118ef565b611147565b6040516102a5959493929190611d17565b60405180910390f35b6102c860048036038101906102c39190611885565b611225565b6040516102d59190611d93565b60405180910390f35b6102f860048036038101906102f39190611885565b6114f1565b6040516103059190611e72565b60405180910390f35b60026020528060005260406000206000915054906101000a900473ffffffffffffffffffffffffffffffffffffffff1681565b60606000805467ffffffffffffffff811115610386577f4e487b7100000000000000000000000000000000000000000000000000000000600052604160045260246000fd5b6040519080825280602002602001820160405280156103bf57816020015b6103ac61170b565b8152602001906001900390816103a45790505b5090506000600190505b600054811161055957600160008281526020019081526020016000206040518060a00160405290816000820160009054906101000a900473ffffffffffffffffffffffffffffffffffffffff1673ffffffffffffffffffffffffffffffffffffffff1673ffffffffffffffffffffffffffffffffffffffff16815260200160018201548152602001600282015481526020016003820154815260200160048201805461047490612173565b80601f01602080910402602001604051908101604052809291908181526020018280546104a090612173565b80156104ed5780601f106104c2576101008083540402835291602001916104ed565b820191906000526020600020905b8154815290600101906020018083116104d057829003601f168201915b50505050508152505082600183610504919061204a565b8151811061053b577f4e487b7100000000000000000000000000000000000000000000000000000000600052603260045260246000fd5b60200260200101819052508080610551906121d6565b9150506103c9565b508091505090565b6060600460008381526020019081526020016000208054806020026020016040519081016040528092919081815260200182805480156105f657602002820191906000526020600020905b8160009054906101000a900473ffffffffffffffffffffffffffffffffffffffff1673ffffffffffffffffffffffffffffffffffffffff16815260200190600101908083116105ac575b50505050509050919050565b42601e600760003373ffffffffffffffffffffffffffffffffffffffff1673ffffffffffffffffffffffffffffffffffffffff1681526020019081526020016000205461064f9190611ff4565b1061068f576040517f08c379a000000000000000000000000000000000000000000000000000000000815260040161068690611e30565b60405180910390fd5b42600760003373ffffffffffffffffffffffffffffffffffffffff1673ffffffffffffffffffffffffffffffffffffffff168152602001908152602001600020819055506000819050600081511180156106eb575060f0815111155b61072a576040517f08c379a000000000000000000000000000000000000000000000000000000000815260040161072190611df0565b60405180910390fd5b6000600160005461073b9190611ff4565b9050600061074884611509565b905060006040518060a001604052803373ffffffffffffffffffffffffffffffffffffffff16815260200184815260200142815260200160008152602001838152509050806001600085815260200190815260200160002060008201518160000160006101000a81548173ffffffffffffffffffffffffffffffffffffffff021916908373ffffffffffffffffffffffffffffffffffffffff1602179055506020820151816001015560408201518160020155606082015181600301556080820151816004019080519060200190610821929190611750565b50905050336002600085815260200190815260200160002060006101000a81548173ffffffffffffffffffffffffffffffffffffffff021916908373ffffffffffffffffffffffffffffffffffffffff160217905550600360003373ffffffffffffffffffffffffffffffffffffffff1673ffffffffffffffffffffffffffffffffffffffff16815260200190815260200160002060008154809291906108c7906121d6565b91905055506000808154809291906108de906121d6565b9190505550606460065442446108f49190611ff4565b6108fe9190611ff4565b610908919061221f565b600681905550603260065411610a15576000655af3107a4000905047811115610966576040517f08c379a000000000000000000000000000000000000000000000000000000000815260040161095d90611dd0565b60405180910390fd5b60003373ffffffffffffffffffffffffffffffffffffffff168260405161098c90611ce7565b60006040518083038185875af1925050503d80600081146109c9576040519150601f19603f3d011682016040523d82523d6000602084013e6109ce565b606091505b5050905080610a12576040517f08c379a0000000000000000000000000000000000000000000000000000000008152600401610a0990611e10565b60405180910390fd5b50505b3373ffffffffffffffffffffffffffffffffffffffff167fd0558550efc06f5bb8f784461634b7117a32c31b83d823f08aba6edf46bd5438844285604051610a5f93929190611eb6565b60405180910390a25050505050565b60046020528160005260406000208181548110610a8a57600080fd5b906000526020600020016000915091509054906101000a900473ffffffffffffffffffffffffffffffffffffffff1681565b60076020528060005260406000206000915090505481565b610adc61170b565b600160008381526020019081526020016000206040518060a00160405290816000820160009054906101000a900473ffffffffffffffffffffffffffffffffffffffff1673ffffffffffffffffffffffffffffffffffffffff1673ffffffffffffffffffffffffffffffffffffffff168152602001600182015481526020016002820154815260200160038201548152602001600482018054610b7e90612173565b80601f0160208091040260200160405190810160405280929190818152602001828054610baa90612173565b8015610bf75780601f10610bcc57610100808354040283529160200191610bf7565b820191906000526020600020905b815481529060010190602001808311610bda57829003601f168201915b5050505050815250509050919050565b6000600360008373ffffffffffffffffffffffffffffffffffffffff1673ffffffffffffffffffffffffffffffffffffffff168152602001908152602001600020549050919050565b60056020528160005260406000206020528060005260406000206000915091509054906101000a900460ff1681565b6000600160008381526020019081526020016000209050600015156005600084815260200190815260200160002060003373ffffffffffffffffffffffffffffffffffffffff1673ffffffffffffffffffffffffffffffffffffffff16815260200190815260200160002060009054906101000a900460ff1615151415610e395760016005600084815260200190815260200160002060003373ffffffffffffffffffffffffffffffffffffffff1673ffffffffffffffffffffffffffffffffffffffff16815260200190815260200160002060006101000a81548160ff02191690831515021790555060046000838152602001908152602001600020339080600181540180825580915050600190039060005260206000200160009091909190916101000a81548173ffffffffffffffffffffffffffffffffffffffff021916908373ffffffffffffffffffffffffffffffffffffffff160217905550806003016000815480929190610df2906121d6565b91905055507fce95d00b5d978b6c1ea0db3dea02ad6b73bd5f44eaf3626d9c7c30dedbca6966828260030154604051610e2c929190611e8d565b60405180910390a1611143565b60006005600084815260200190815260200160002060003373ffffffffffffffffffffffffffffffffffffffff1673ffffffffffffffffffffffffffffffffffffffff16815260200190815260200160002060006101000a81548160ff0219169083151502179055506004600083815260200190815260200160002060016004600085815260200190815260200160002080549050610ed8919061204a565b81548110610f0f577f4e487b7100000000000000000000000000000000000000000000000000000000600052603260045260246000fd5b9060005260206000200160009054906101000a900473ffffffffffffffffffffffffffffffffffffffff1660046000848152602001908152602001600020610fee60046000868152602001908152602001600020805480602002602001604051908101604052809291908181526020018280548015610fe357602002820191906000526020600020905b8160009054906101000a900473ffffffffffffffffffffffffffffffffffffffff1673ffffffffffffffffffffffffffffffffffffffff1681526020019060010190808311610f99575b5050505050336115ed565b81548110611025577f4e487b7100000000000000000000000000000000000000000000000000000000600052603260045260246000fd5b9060005260206000200160006101000a81548173ffffffffffffffffffffffffffffffffffffffff021916908373ffffffffffffffffffffffffffffffffffffffff160217905550600460008381526020019081526020016000208054806110b6577f4e487b7100000000000000000000000000000000000000000000000000000000600052603160045260246000fd5b6001900381819060005260206000200160006101000a81549073ffffffffffffffffffffffffffffffffffffffff0219169055905580600301600081548092919061110090612149565b91905055507f1159a69873e07437adfdf3120b6df052f8c62f14a0cd970444301e34be444b5782826003015460405161113a929190611e8d565b60405180910390a15b5050565b60016020528060005260406000206000915090508060000160009054906101000a900473ffffffffffffffffffffffffffffffffffffffff16908060010154908060020154908060030154908060040180546111a290612173565b80601f01602080910402602001604051908101604052809291908181526020018280546111ce90612173565b801561121b5780601f106111f05761010080835404028352916020019161121b565b820191906000526020600020905b8154815290600101906020018083116111fe57829003601f168201915b5050505050905085565b60606000600360008473ffffffffffffffffffffffffffffffffffffffff1673ffffffffffffffffffffffffffffffffffffffff1681526020019081526020016000205467ffffffffffffffff8111156112a8577f4e487b7100000000000000000000000000000000000000000000000000000000600052604160045260246000fd5b6040519080825280602002602001820160405280156112e157816020015b6112ce61170b565b8152602001906001900390816112c65790505b509050600080600190505b60005481116114e6578473ffffffffffffffffffffffffffffffffffffffff166002600083815260200190815260200160002060009054906101000a900473ffffffffffffffffffffffffffffffffffffffff1673ffffffffffffffffffffffffffffffffffffffff1614156114d357600160008281526020019081526020016000206040518060a00160405290816000820160009054906101000a900473ffffffffffffffffffffffffffffffffffffffff1673ffffffffffffffffffffffffffffffffffffffff1673ffffffffffffffffffffffffffffffffffffffff1681526020016001820154815260200160028201548152602001600382015481526020016004820180546113fe90612173565b80601f016020809104026020016040519081016040528092919081815260200182805461142a90612173565b80156114775780601f1061144c57610100808354040283529160200191611477565b820191906000526020600020905b81548152906001019060200180831161145a57829003601f168201915b5050505050815250508383815181106114b9577f4e487b7100000000000000000000000000000000000000000000000000000000600052603260045260246000fd5b602002602001018190525081806114cf906121d6565b9250505b80806114de906121d6565b9150506112ec565b508192505050919050565b60036020528060005260406000206000915090505481565b6060600082905060005b81518110156115e357611568828281518110611558577f4e487b7100000000000000000000000000000000000000000000000000000000600052603260045260246000fd5b602001015160f81c60f81b611685565b8282815181106115a1577f4e487b7100000000000000000000000000000000000000000000000000000000600052603260045260246000fd5b60200101907effffffffffffffffffffffffffffffffffffffffffffffffffffffffffffff1916908160001a90535080806115db906121d6565b915050611513565b5080915050919050565b600080600090505b8273ffffffffffffffffffffffffffffffffffffffff16848281518110611645577f4e487b7100000000000000000000000000000000000000000000000000000000600052603260045260246000fd5b602002602001015173ffffffffffffffffffffffffffffffffffffffff161461167b578080611673906121d6565b9150506115f5565b8091505092915050565b6000606160f81b827effffffffffffffffffffffffffffffffffffffffffffffffffffffffffffff1916101580156116e35750607a60f81b827effffffffffffffffffffffffffffffffffffffffffffffffffffffffffffff191611155b156117025760208260f81c6116f8919061207e565b60f81b9050611706565b8190505b919050565b6040518060a00160405280600073ffffffffffffffffffffffffffffffffffffffff168152602001600081526020016000815260200160008152602001606081525090565b82805461175c90612173565b90600052602060002090601f01602090048101928261177e57600085556117c5565b82601f1061179757805160ff19168380011785556117c5565b828001600101855582156117c5579182015b828111156117c45782518255916020019190600101906117a9565b5b5090506117d291906117d6565b5090565b5b808211156117ef5760008160009055506001016117d7565b5090565b600061180661180184611f19565b611ef4565b90508281526020810184848401111561181e57600080fd5b611829848285612107565b509392505050565b60008135905061184081612482565b92915050565b600082601f83011261185757600080fd5b81356118678482602086016117f3565b91505092915050565b60008135905061187f81612499565b92915050565b60006020828403121561189757600080fd5b60006118a584828501611831565b91505092915050565b6000602082840312156118c057600080fd5b600082013567ffffffffffffffff8111156118da57600080fd5b6118e684828501611846565b91505092915050565b60006020828403121561190157600080fd5b600061190f84828501611870565b91505092915050565b6000806040838503121561192b57600080fd5b600061193985828601611870565b925050602061194a85828601611831565b9150509250929050565b6000806040838503121561196757600080fd5b600061197585828601611870565b925050602061198685828601611870565b9150509250929050565b600061199c83836119bc565b60208301905092915050565b60006119b48383611bdd565b905092915050565b6119c5816120b2565b82525050565b6119d4816120b2565b82525050565b60006119e582611f6a565b6119ef8185611fa5565b93506119fa83611f4a565b8060005b83811015611a2b578151611a128882611990565b9750611a1d83611f8b565b9250506001810190506119fe565b5085935050505092915050565b6000611a4382611f75565b611a4d8185611fb6565b935083602082028501611a5f85611f5a565b8060005b85811015611a9b5784840389528151611a7c85826119a8565b9450611a8783611f98565b925060208a01995050600181019050611a63565b50829750879550505050505092915050565b611ab6816120c4565b82525050565b6000611ac782611f80565b611ad18185611fd2565b9350611ae1818560208601612116565b611aea8161230c565b840191505092915050565b6000611b0082611f80565b611b0a8185611fe3565b9350611b1a818560208601612116565b611b238161230c565b840191505092915050565b6000611b3b603483611fe3565b9150611b468261231d565b604082019050919050565b6000611b5e604483611fe3565b9150611b698261236c565b606082019050919050565b6000611b81602783611fe3565b9150611b8c826123e1565b604082019050919050565b6000611ba4602983611fe3565b9150611baf82612430565b604082019050919050565b6000611bc7600083611fc7565b9150611bd28261247f565b600082019050919050565b600060a083016000830151611bf560008601826119bc565b506020830151611c086020860182611cc9565b506040830151611c1b6040860182611cc9565b506060830151611c2e6060860182611cc9565b5060808301518482036080860152611c468282611abc565b9150508091505092915050565b600060a083016000830151611c6b60008601826119bc565b506020830151611c7e6020860182611cc9565b506040830151611c916040860182611cc9565b506060830151611ca46060860182611cc9565b5060808301518482036080860152611cbc8282611abc565b9150508091505092915050565b611cd2816120f0565b82525050565b611ce1816120f0565b82525050565b6000611cf282611bba565b9150819050919050565b6000602082019050611d1160008301846119cb565b92915050565b600060a082019050611d2c60008301886119cb565b611d396020830187611cd8565b611d466040830186611cd8565b611d536060830185611cd8565b8181036080830152611d658184611af5565b90509695505050505050565b60006020820190508181036000830152611d8b81846119da565b905092915050565b60006020820190508181036000830152611dad8184611a38565b905092915050565b6000602082019050611dca6000830184611aad565b92915050565b60006020820190508181036000830152611de981611b2e565b9050919050565b60006020820190508181036000830152611e0981611b51565b9050919050565b60006020820190508181036000830152611e2981611b74565b9050919050565b60006020820190508181036000830152611e4981611b97565b9050919050565b60006020820190508181036000830152611e6a8184611c53565b905092915050565b6000602082019050611e876000830184611cd8565b92915050565b6000604082019050611ea26000830185611cd8565b611eaf6020830184611cd8565b9392505050565b6000606082019050611ecb6000830186611cd8565b611ed86020830185611cd8565b8181036040830152611eea8184611af5565b9050949350505050565b6000611efe611f0f565b9050611f0a82826121a5565b919050565b6000604051905090565b600067ffffffffffffffff821115611f3457611f336122dd565b5b611f3d8261230c565b9050602081019050919050565b6000819050602082019050919050565b6000819050602082019050919050565b600081519050919050565b600081519050919050565b600081519050919050565b6000602082019050919050565b6000602082019050919050565b600082825260208201905092915050565b600082825260208201905092915050565b600081905092915050565b600082825260208201905092915050565b600082825260208201905092915050565b6000611fff826120f0565b915061200a836120f0565b9250827fffffffffffffffffffffffffffffffffffffffffffffffffffffffffffffffff0382111561203f5761203e612250565b5b828201905092915050565b6000612055826120f0565b9150612060836120f0565b92508282101561207357612072612250565b5b828203905092915050565b6000612089826120fa565b9150612094836120fa565b9250828210156120a7576120a6612250565b5b828203905092915050565b60006120bd826120d0565b9050919050565b60008115159050919050565b600073ffffffffffffffffffffffffffffffffffffffff82169050919050565b6000819050919050565b600060ff82169050919050565b82818337600083830152505050565b60005b83811015612134578082015181840152602081019050612119565b83811115612143576000848401525b50505050565b6000612154826120f0565b9150600082141561216857612167612250565b5b600182039050919050565b6000600282049050600182168061218b57607f821691505b6020821081141561219f5761219e6122ae565b5b50919050565b6121ae8261230c565b810181811067ffffffffffffffff821117156121cd576121cc6122dd565b5b80604052505050565b60006121e1826120f0565b91507fffffffffffffffffffffffffffffffffffffffffffffffffffffffffffffffff82141561221457612213612250565b5b600182019050919050565b600061222a826120f0565b9150612235836120f0565b9250826122455761224461227f565b5b828206905092915050565b7f4e487b7100000000000000000000000000000000000000000000000000000000600052601160045260246000fd5b7f4e487b7100000000000000000000000000000000000000000000000000000000600052601260045260246000fd5b7f4e487b7100000000000000000000000000000000000000000000000000000000600052602260045260246000fd5b7f4e487b7100000000000000000000000000000000000000000000000000000000600052604160045260246000fd5b6000601f19601f8301169050919050565b7f547279696e6720746f207769746864726177206d6f7265206d6f6e657920746860008201527f616e2074686520636f6e7472616374206861732e000000000000000000000000602082015250565b7f43686172616374657220636f756e74206d75737420626520677265617465722060008201527f7468616e203020616e64206c657373207468616e206f7220657175616c20746f60208201527f2032343000000000000000000000000000000000000000000000000000000000604082015250565b7f4661696c656420746f207769746864726177206d6f6e65792066726f6d20636f60008201527f6e74726163742e00000000000000000000000000000000000000000000000000602082015250565b7f4d7573742077616974203330207365636f6e6473206265666f7265207761766960008201527f6e6720616761696e2e0000000000000000000000000000000000000000000000602082015250565b50565b61248b816120b2565b811461249657600080fd5b50565b6124a2816120f0565b81146124ad57600080fd5b5056fea264697066735822122002f4d6b273a5d4156bb01931e3876839e2b8c0b9ee0a92a8aaccc69a50469a1664736f6c63430008040033",
  "linkReferences": {},
  "deployedLinkReferences": {}
}