{
  "_format": "hh-sol-artifact-1",
  "contractName": "Twitter",
  "sourceName": "contracts/Twitter.sol",
  "abi": [
    {
      "inputs": [
        {
          "internalType": "string",
          "name": "_text",
          "type": "string"
        }
      ],
      "name": "createTweet",
      "outputs": [],
      "stateMutability": "nonpayable",
      "type": "function"
    },
    {
      "inputs": [],
      "name": "getAllTweets",
      "outputs": [
        {
          "components": [
            {
              "internalType": "uint256",
              "name": "id",
              "type": "uint256"
            },
            {
              "internalType": "address",
              "name": "owner",
              "type": "address"
            },
            {
              "internalType": "string",
              "name": "text",
              "type": "string"
            },
            {
              "internalType": "uint256",
              "name": "timestamp",
              "type": "uint256"
            },
            {
              "internalType": "uint256",
              "name": "likes",
              "type": "uint256"
            }
          ],
          "internalType": "struct Twitter.Tweet[]",
          "name": "",
          "type": "tuple[]"
        }
      ],
      "stateMutability": "view",
      "type": "function"
    },
    {
      "inputs": [
        {
          "internalType": "uint256",
          "name": "_id",
          "type": "uint256"
        }
      ],
      "name": "getLikesForTweet",
      "outputs": [
        {
          "internalType": "address[]",
          "name": "",
          "type": "address[]"
        }
      ],
      "stateMutability": "view",
      "type": "function"
    },
    {
      "inputs": [
        {
          "internalType": "address",
          "name": "_owner",
          "type": "address"
        }
      ],
      "name": "getOwnerTweetCount",
      "outputs": [
        {
          "internalType": "uint256",
          "name": "",
          "type": "uint256"
        }
      ],
      "stateMutability": "view",
      "type": "function"
    },
    {
      "inputs": [
        {
          "internalType": "address",
          "name": "_owner",
          "type": "address"
        }
      ],
      "name": "getOwnerTweets",
      "outputs": [
        {
          "components": [
            {
              "internalType": "uint256",
              "name": "id",
              "type": "uint256"
            },
            {
              "internalType": "address",
              "name": "owner",
              "type": "address"
            },
            {
              "internalType": "string",
              "name": "text",
              "type": "string"
            },
            {
              "internalType": "uint256",
              "name": "timestamp",
              "type": "uint256"
            },
            {
              "internalType": "uint256",
              "name": "likes",
              "type": "uint256"
            }
          ],
          "internalType": "struct Twitter.Tweet[]",
          "name": "",
          "type": "tuple[]"
        }
      ],
      "stateMutability": "view",
      "type": "function"
    },
    {
      "inputs": [
        {
          "internalType": "uint256",
          "name": "_id",
          "type": "uint256"
        }
      ],
      "name": "getTweet",
      "outputs": [
        {
          "components": [
            {
              "internalType": "uint256",
              "name": "id",
              "type": "uint256"
            },
            {
              "internalType": "address",
              "name": "owner",
              "type": "address"
            },
            {
              "internalType": "string",
              "name": "text",
              "type": "string"
            },
            {
              "internalType": "uint256",
              "name": "timestamp",
              "type": "uint256"
            },
            {
              "internalType": "uint256",
              "name": "likes",
              "type": "uint256"
            }
          ],
          "internalType": "struct Twitter.Tweet",
          "name": "",
          "type": "tuple"
        }
      ],
      "stateMutability": "view",
      "type": "function"
    },
    {
      "inputs": [
        {
          "internalType": "uint256",
          "name": "",
          "type": "uint256"
        },
        {
          "internalType": "uint256",
          "name": "",
          "type": "uint256"
        }
      ],
      "name": "likeToOwner",
      "outputs": [
        {
          "internalType": "address",
          "name": "",
          "type": "address"
        }
      ],
      "stateMutability": "view",
      "type": "function"
    },
    {
      "inputs": [
        {
          "internalType": "uint256",
          "name": "_id",
          "type": "uint256"
        }
      ],
      "name": "likeTweet",
      "outputs": [],
      "stateMutability": "nonpayable",
      "type": "function"
    },
    {
      "inputs": [
        {
          "internalType": "address",
          "name": "",
          "type": "address"
        }
      ],
      "name": "ownerTweetCount",
      "outputs": [
        {
          "internalType": "uint256",
          "name": "",
          "type": "uint256"
        }
      ],
      "stateMutability": "view",
      "type": "function"
    },
    {
      "inputs": [
        {
          "internalType": "uint256",
          "name": "",
          "type": "uint256"
        }
      ],
      "name": "tweetToOwner",
      "outputs": [
        {
          "internalType": "address",
          "name": "",
          "type": "address"
        }
      ],
      "stateMutability": "view",
      "type": "function"
    },
    {
      "inputs": [
        {
          "internalType": "uint256",
          "name": "",
          "type": "uint256"
        }
      ],
      "name": "tweets",
      "outputs": [
        {
          "internalType": "uint256",
          "name": "id",
          "type": "uint256"
        },
        {
          "internalType": "address",
          "name": "owner",
          "type": "address"
        },
        {
          "internalType": "string",
          "name": "text",
          "type": "string"
        },
        {
          "internalType": "uint256",
          "name": "timestamp",
          "type": "uint256"
        },
        {
          "internalType": "uint256",
          "name": "likes",
          "type": "uint256"
        }
      ],
      "stateMutability": "view",
      "type": "function"
    }
  ],
  "bytecode": "0x608060405234801561001057600080fd5b5061168a806100206000396000f3fe608060405234801561001057600080fd5b50600436106100a95760003560e01c8063761559041161007157806376155904146101785780637c9cd2bc146101a8578063c3ad5ecb146101c4578063d4b6b228146101f4578063e8d857b014610224578063e946a89d14610258576100a9565b80634136715e146100ae57806341e0d306146100de578063532561351461010e57806357cbcc741461012c5780635ffc6ceb1461015c575b600080fd5b6100c860048036038101906100c39190610ed7565b610288565b6040516100d591906112c0565b60405180910390f35b6100f860048036038101906100f39190610f41565b6102a0565b604051610105919061123f565b60405180910390f35b6101166102d3565b604051610123919061127c565b60405180910390f35b61014660048036038101906101419190610f6a565b610438565b604051610153919061123f565b60405180910390f35b61017660048036038101906101719190610f41565b610486565b005b610192600480360381019061018d9190610f41565b610563565b60405161019f919061125a565b60405180910390f35b6101c260048036038101906101bd9190610f00565b610604565b005b6101de60048036038101906101d99190610f41565b6107bd565b6040516101eb919061129e565b60405180910390f35b61020e60048036038101906102099190610ed7565b610925565b60405161021b91906112c0565b60405180910390f35b61023e60048036038101906102399190610f41565b61096e565b60405161024f9594939291906112db565b60405180910390f35b610272600480360381019061026d9190610ed7565b610a5c565b60405161027f919061127c565b60405180910390f35b60026020528060005260406000206000915090505481565b60016020528060005260406000206000915054906101000a900473ffffffffffffffffffffffffffffffffffffffff1681565b60606000805480602002602001604051908101604052809291908181526020016000905b8282101561042f57838290600052602060002090600502016040518060a0016040529081600082015481526020016001820160009054906101000a900473ffffffffffffffffffffffffffffffffffffffff1673ffffffffffffffffffffffffffffffffffffffff1673ffffffffffffffffffffffffffffffffffffffff16815260200160028201805461038a906114dc565b80601f01602080910402602001604051908101604052809291908181526020018280546103b6906114dc565b80156104035780601f106103d857610100808354040283529160200191610403565b820191906000526020600020905b8154815290600101906020018083116103e657829003601f168201915b5050505050815260200160038201548152602001600482015481525050815260200190600101906102f7565b50505050905090565b6003602052816000526040600020818154811061045457600080fd5b906000526020600020016000915091509054906101000a900473ffffffffffffffffffffffffffffffffffffffff1681565b60008082815481106104c1577f4e487b7100000000000000000000000000000000000000000000000000000000600052603260045260246000fd5b906000526020600020906005020190508060040160008154809291906104e69061153f565b919050555060036000838152602001908152602001600020339080600181540180825580915050600190039060005260206000200160009091909190916101000a81548173ffffffffffffffffffffffffffffffffffffffff021916908373ffffffffffffffffffffffffffffffffffffffff1602179055505050565b6060600360008381526020019081526020016000208054806020026020016040519081016040528092919081815260200182805480156105f857602002820191906000526020600020905b8160009054906101000a900473ffffffffffffffffffffffffffffffffffffffff1673ffffffffffffffffffffffffffffffffffffffff16815260200190600101908083116105ae575b50505050509050919050565b60006040518060a0016040528060008054905081526020013373ffffffffffffffffffffffffffffffffffffffff1681526020018381526020014281526020016000815250905060008190806001815401808255809150506001900390600052602060002090600502016000909190919091506000820151816000015560208201518160010160006101000a81548173ffffffffffffffffffffffffffffffffffffffff021916908373ffffffffffffffffffffffffffffffffffffffff16021790555060408201518160020190805190602001906106e4929190610d5d565b50606082015181600301556080820151816004015550506000600160008054905061070f919061142a565b9050336001600083815260200190815260200160002060006101000a81548173ffffffffffffffffffffffffffffffffffffffff021916908373ffffffffffffffffffffffffffffffffffffffff160217905550600260003373ffffffffffffffffffffffffffffffffffffffff1673ffffffffffffffffffffffffffffffffffffffff16815260200190815260200160002060008154809291906107b39061153f565b9190505550505050565b6107c5610de3565b600082815481106107ff577f4e487b7100000000000000000000000000000000000000000000000000000000600052603260045260246000fd5b90600052602060002090600502016040518060a0016040529081600082015481526020016001820160009054906101000a900473ffffffffffffffffffffffffffffffffffffffff1673ffffffffffffffffffffffffffffffffffffffff1673ffffffffffffffffffffffffffffffffffffffff168152602001600282018054610888906114dc565b80601f01602080910402602001604051908101604052809291908181526020018280546108b4906114dc565b80156109015780601f106108d657610100808354040283529160200191610901565b820191906000526020600020905b8154815290600101906020018083116108e457829003601f168201915b50505050508152602001600382015481526020016004820154815250509050919050565b6000600260008373ffffffffffffffffffffffffffffffffffffffff1673ffffffffffffffffffffffffffffffffffffffff168152602001908152602001600020549050919050565b6000818154811061097e57600080fd5b90600052602060002090600502016000915090508060000154908060010160009054906101000a900473ffffffffffffffffffffffffffffffffffffffff16908060020180546109cd906114dc565b80601f01602080910402602001604051908101604052809291908181526020018280546109f9906114dc565b8015610a465780601f10610a1b57610100808354040283529160200191610a46565b820191906000526020600020905b815481529060010190602001808311610a2957829003601f168201915b5050505050908060030154908060040154905085565b60606000600260008473ffffffffffffffffffffffffffffffffffffffff1673ffffffffffffffffffffffffffffffffffffffff1681526020019081526020016000205467ffffffffffffffff811115610adf577f4e487b7100000000000000000000000000000000000000000000000000000000600052604160045260246000fd5b604051908082528060200260200182016040528015610b1857816020015b610b05610de3565b815260200190600190039081610afd5790505b5090506000805b600080549050811015610d52578473ffffffffffffffffffffffffffffffffffffffff166001600083815260200190815260200160002060009054906101000a900473ffffffffffffffffffffffffffffffffffffffff1673ffffffffffffffffffffffffffffffffffffffff161415610d3f5760008181548110610bcd577f4e487b7100000000000000000000000000000000000000000000000000000000600052603260045260246000fd5b90600052602060002090600502016040518060a0016040529081600082015481526020016001820160009054906101000a900473ffffffffffffffffffffffffffffffffffffffff1673ffffffffffffffffffffffffffffffffffffffff1673ffffffffffffffffffffffffffffffffffffffff168152602001600282018054610c56906114dc565b80601f0160208091040260200160405190810160405280929190818152602001828054610c82906114dc565b8015610ccf5780601f10610ca457610100808354040283529160200191610ccf565b820191906000526020600020905b815481529060010190602001808311610cb257829003601f168201915b5050505050815260200160038201548152602001600482015481525050838381518110610d25577f4e487b7100000000000000000000000000000000000000000000000000000000600052603260045260246000fd5b60200260200101819052508180610d3b9061153f565b9250505b8080610d4a9061153f565b915050610b1f565b508192505050919050565b828054610d69906114dc565b90600052602060002090601f016020900481019282610d8b5760008555610dd2565b82601f10610da457805160ff1916838001178555610dd2565b82800160010185558215610dd2579182015b82811115610dd1578251825591602001919060010190610db6565b5b509050610ddf9190610e28565b5090565b6040518060a0016040528060008152602001600073ffffffffffffffffffffffffffffffffffffffff1681526020016060815260200160008152602001600081525090565b5b80821115610e41576000816000905550600101610e29565b5090565b6000610e58610e538461135a565b611335565b905082815260208101848484011115610e7057600080fd5b610e7b84828561149a565b509392505050565b600081359050610e9281611626565b92915050565b600082601f830112610ea957600080fd5b8135610eb9848260208601610e45565b91505092915050565b600081359050610ed18161163d565b92915050565b600060208284031215610ee957600080fd5b6000610ef784828501610e83565b91505092915050565b600060208284031215610f1257600080fd5b600082013567ffffffffffffffff811115610f2c57600080fd5b610f3884828501610e98565b91505092915050565b600060208284031215610f5357600080fd5b6000610f6184828501610ec2565b91505092915050565b60008060408385031215610f7d57600080fd5b6000610f8b85828601610ec2565b9250506020610f9c85828601610ec2565b9150509250929050565b6000610fb28383610fd2565b60208301905092915050565b6000610fca8383611135565b905092915050565b610fdb8161145e565b82525050565b610fea8161145e565b82525050565b6000610ffb826113ab565b61100581856113e6565b93506110108361138b565b8060005b838110156110415781516110288882610fa6565b9750611033836113cc565b925050600181019050611014565b5085935050505092915050565b6000611059826113b6565b61106381856113f7565b9350836020820285016110758561139b565b8060005b858110156110b157848403895281516110928582610fbe565b945061109d836113d9565b925060208a01995050600181019050611079565b50829750879550505050505092915050565b60006110ce826113c1565b6110d88185611408565b93506110e88185602086016114a9565b6110f181611615565b840191505092915050565b6000611107826113c1565b6111118185611419565b93506111218185602086016114a9565b61112a81611615565b840191505092915050565b600060a08301600083015161114d6000860182611221565b5060208301516111606020860182610fd2565b506040830151848203604086015261117882826110c3565b915050606083015161118d6060860182611221565b5060808301516111a06080860182611221565b508091505092915050565b600060a0830160008301516111c36000860182611221565b5060208301516111d66020860182610fd2565b50604083015184820360408601526111ee82826110c3565b91505060608301516112036060860182611221565b5060808301516112166080860182611221565b508091505092915050565b61122a81611490565b82525050565b61123981611490565b82525050565b60006020820190506112546000830184610fe1565b92915050565b600060208201905081810360008301526112748184610ff0565b905092915050565b60006020820190508181036000830152611296818461104e565b905092915050565b600060208201905081810360008301526112b881846111ab565b905092915050565b60006020820190506112d56000830184611230565b92915050565b600060a0820190506112f06000830188611230565b6112fd6020830187610fe1565b818103604083015261130f81866110fc565b905061131e6060830185611230565b61132b6080830184611230565b9695505050505050565b600061133f611350565b905061134b828261150e565b919050565b6000604051905090565b600067ffffffffffffffff821115611375576113746115e6565b5b61137e82611615565b9050602081019050919050565b6000819050602082019050919050565b6000819050602082019050919050565b600081519050919050565b600081519050919050565b600081519050919050565b6000602082019050919050565b6000602082019050919050565b600082825260208201905092915050565b600082825260208201905092915050565b600082825260208201905092915050565b600082825260208201905092915050565b600061143582611490565b915061144083611490565b92508282101561145357611452611588565b5b828203905092915050565b600061146982611470565b9050919050565b600073ffffffffffffffffffffffffffffffffffffffff82169050919050565b6000819050919050565b82818337600083830152505050565b60005b838110156114c75780820151818401526020810190506114ac565b838111156114d6576000848401525b50505050565b600060028204905060018216806114f457607f821691505b60208210811415611508576115076115b7565b5b50919050565b61151782611615565b810181811067ffffffffffffffff82111715611536576115356115e6565b5b80604052505050565b600061154a82611490565b91507fffffffffffffffffffffffffffffffffffffffffffffffffffffffffffffffff82141561157d5761157c611588565b5b600182019050919050565b7f4e487b7100000000000000000000000000000000000000000000000000000000600052601160045260246000fd5b7f4e487b7100000000000000000000000000000000000000000000000000000000600052602260045260246000fd5b7f4e487b7100000000000000000000000000000000000000000000000000000000600052604160045260246000fd5b6000601f19601f8301169050919050565b61162f8161145e565b811461163a57600080fd5b50565b61164681611490565b811461165157600080fd5b5056fea2646970667358221220a5caa9b657e5759e47841ee082f5381a29781dd11af3f6852b39a5a000f19fc064736f6c63430008040033",
  "linkReferences": {},
  "deployedLinkReferences": {}
}