{
  "_format": "hh-sol-artifact-1",
  "contractName": "Twitter",
  "sourceName": "contracts/Twitter.sol",
  "abi": [
    {
      "anonymous": false,
      "inputs": [
        {
          "indexed": true,
          "internalType": "address",
          "name": "_from",
          "type": "address"
        },
        {
          "indexed": false,
          "internalType": "uint256",
          "name": "_timestamp",
          "type": "uint256"
        },
        {
          "indexed": false,
          "internalType": "uint256",
          "name": "_id",
          "type": "uint256"
        }
      ],
      "name": "LikeTweet",
      "type": "event"
    },
    {
      "anonymous": false,
      "inputs": [
        {
          "indexed": true,
          "internalType": "address",
          "name": "_from",
          "type": "address"
        },
        {
          "indexed": false,
          "internalType": "uint256",
          "name": "_timestamp",
          "type": "uint256"
        },
        {
          "indexed": false,
          "internalType": "string",
          "name": "_text",
          "type": "string"
        }
      ],
      "name": "NewTweet",
      "type": "event"
    },
    {
      "anonymous": false,
      "inputs": [
        {
          "indexed": true,
          "internalType": "address",
          "name": "_from",
          "type": "address"
        },
        {
          "indexed": false,
          "internalType": "uint256",
          "name": "_timestamp",
          "type": "uint256"
        },
        {
          "indexed": false,
          "internalType": "uint256",
          "name": "_id",
          "type": "uint256"
        }
      ],
      "name": "UnlikeTweet",
      "type": "event"
    },
    {
      "inputs": [
        {
          "internalType": "string",
          "name": "_text",
          "type": "string"
        }
      ],
      "name": "createTweet",
      "outputs": [],
      "stateMutability": "nonpayable",
      "type": "function"
    },
    {
      "inputs": [],
      "name": "getAllTweets",
      "outputs": [
        {
          "components": [
            {
              "internalType": "address",
              "name": "owner",
              "type": "address"
            },
            {
              "internalType": "uint256",
              "name": "id",
              "type": "uint256"
            },
            {
              "internalType": "uint256",
              "name": "timestamp",
              "type": "uint256"
            },
            {
              "internalType": "uint256",
              "name": "likes",
              "type": "uint256"
            },
            {
              "internalType": "string",
              "name": "text",
              "type": "string"
            }
          ],
          "internalType": "struct Twitter.Tweet[]",
          "name": "",
          "type": "tuple[]"
        }
      ],
      "stateMutability": "view",
      "type": "function"
    },
    {
      "inputs": [
        {
          "internalType": "uint256",
          "name": "_id",
          "type": "uint256"
        }
      ],
      "name": "getLikesForTweet",
      "outputs": [
        {
          "internalType": "address[]",
          "name": "",
          "type": "address[]"
        }
      ],
      "stateMutability": "view",
      "type": "function"
    },
    {
      "inputs": [
        {
          "internalType": "address",
          "name": "_owner",
          "type": "address"
        }
      ],
      "name": "getOwnerTweetCount",
      "outputs": [
        {
          "internalType": "uint256",
          "name": "",
          "type": "uint256"
        }
      ],
      "stateMutability": "view",
      "type": "function"
    },
    {
      "inputs": [
        {
          "internalType": "address",
          "name": "_owner",
          "type": "address"
        }
      ],
      "name": "getOwnerTweets",
      "outputs": [
        {
          "components": [
            {
              "internalType": "address",
              "name": "owner",
              "type": "address"
            },
            {
              "internalType": "uint256",
              "name": "id",
              "type": "uint256"
            },
            {
              "internalType": "uint256",
              "name": "timestamp",
              "type": "uint256"
            },
            {
              "internalType": "uint256",
              "name": "likes",
              "type": "uint256"
            },
            {
              "internalType": "string",
              "name": "text",
              "type": "string"
            }
          ],
          "internalType": "struct Twitter.Tweet[]",
          "name": "",
          "type": "tuple[]"
        }
      ],
      "stateMutability": "view",
      "type": "function"
    },
    {
      "inputs": [
        {
          "internalType": "uint256",
          "name": "_id",
          "type": "uint256"
        }
      ],
      "name": "getTweet",
      "outputs": [
        {
          "components": [
            {
              "internalType": "address",
              "name": "owner",
              "type": "address"
            },
            {
              "internalType": "uint256",
              "name": "id",
              "type": "uint256"
            },
            {
              "internalType": "uint256",
              "name": "timestamp",
              "type": "uint256"
            },
            {
              "internalType": "uint256",
              "name": "likes",
              "type": "uint256"
            },
            {
              "internalType": "string",
              "name": "text",
              "type": "string"
            }
          ],
          "internalType": "struct Twitter.Tweet",
          "name": "",
          "type": "tuple"
        }
      ],
      "stateMutability": "view",
      "type": "function"
    },
    {
      "inputs": [
        {
          "internalType": "uint256",
          "name": "",
          "type": "uint256"
        },
        {
          "internalType": "address",
          "name": "",
          "type": "address"
        }
      ],
      "name": "isTweetLikedByAddress",
      "outputs": [
        {
          "internalType": "bool",
          "name": "",
          "type": "bool"
        }
      ],
      "stateMutability": "view",
      "type": "function"
    },
    {
      "inputs": [
        {
          "internalType": "uint256",
          "name": "_id",
          "type": "uint256"
        }
      ],
      "name": "like",
      "outputs": [],
      "stateMutability": "nonpayable",
      "type": "function"
    },
    {
      "inputs": [
        {
          "internalType": "address",
          "name": "",
          "type": "address"
        }
      ],
      "name": "ownerToTweetCount",
      "outputs": [
        {
          "internalType": "uint256",
          "name": "",
          "type": "uint256"
        }
      ],
      "stateMutability": "view",
      "type": "function"
    },
    {
      "inputs": [
        {
          "internalType": "uint256",
          "name": "",
          "type": "uint256"
        },
        {
          "internalType": "uint256",
          "name": "",
          "type": "uint256"
        }
      ],
      "name": "tweetIdToLikeAddresses",
      "outputs": [
        {
          "internalType": "address",
          "name": "",
          "type": "address"
        }
      ],
      "stateMutability": "view",
      "type": "function"
    },
    {
      "inputs": [
        {
          "internalType": "uint256",
          "name": "",
          "type": "uint256"
        }
      ],
      "name": "tweetToOwner",
      "outputs": [
        {
          "internalType": "address",
          "name": "",
          "type": "address"
        }
      ],
      "stateMutability": "view",
      "type": "function"
    },
    {
      "inputs": [
        {
          "internalType": "uint256",
          "name": "",
          "type": "uint256"
        }
      ],
      "name": "tweets",
      "outputs": [
        {
          "internalType": "address",
          "name": "owner",
          "type": "address"
        },
        {
          "internalType": "uint256",
          "name": "id",
          "type": "uint256"
        },
        {
          "internalType": "uint256",
          "name": "timestamp",
          "type": "uint256"
        },
        {
          "internalType": "uint256",
          "name": "likes",
          "type": "uint256"
        },
        {
          "internalType": "string",
          "name": "text",
          "type": "string"
        }
      ],
      "stateMutability": "view",
      "type": "function"
    }
  ],
  "bytecode": "0x608060405234801561001057600080fd5b5061203a806100206000396000f3fe608060405234801561001057600080fd5b50600436106100b45760003560e01c8063d4b6b22811610071578063d4b6b228146101b3578063dbd29839146101e3578063e82935da14610213578063e8d857b01461022f578063e946a89d14610263578063f4dde62214610293576100b4565b806341e0d306146100b957806353256135146100e957806376155904146101075780637c9cd2bc14610137578063996a5d2e14610153578063c3ad5ecb14610183575b600080fd5b6100d360048036038101906100ce91906116ad565b6102c3565b6040516100e09190611a19565b60405180910390f35b6100f16102f6565b6040516100fe9190611ab0565b60405180910390f35b610121600480360381019061011c91906116ad565b610516565b60405161012e9190611a8e565b60405180910390f35b610151600480360381019061014c919061166c565b6105b7565b005b61016d60048036038101906101689190611712565b61081e565b60405161017a9190611a19565b60405180910390f35b61019d600480360381019061019891906116ad565b61086c565b6040516101aa9190611b0d565b60405180910390f35b6101cd60048036038101906101c89190611643565b61099f565b6040516101da9190611b2f565b60405180910390f35b6101fd60048036038101906101f891906116d6565b6109e8565b60405161020a9190611ad2565b60405180910390f35b61022d600480360381019061022891906116ad565b610a17565b005b610249600480360381019061024491906116ad565b610f05565b60405161025a959493929190611a34565b60405180910390f35b61027d60048036038101906102789190611643565b610fe3565b60405161028a9190611ab0565b60405180910390f35b6102ad60048036038101906102a89190611643565b6112af565b6040516102ba9190611b2f565b60405180910390f35b60026020528060005260406000206000915054906101000a900473ffffffffffffffffffffffffffffffffffffffff1681565b60606000805467ffffffffffffffff81111561033b577f4e487b7100000000000000000000000000000000000000000000000000000000600052604160045260246000fd5b60405190808252806020026020018201604052801561037457816020015b6103616114c9565b8152602001906001900390816103595790505b5090506000600190505b600054811161050e57600160008281526020019081526020016000206040518060a00160405290816000820160009054906101000a900473ffffffffffffffffffffffffffffffffffffffff1673ffffffffffffffffffffffffffffffffffffffff1673ffffffffffffffffffffffffffffffffffffffff16815260200160018201548152602001600282015481526020016003820154815260200160048201805461042990611e17565b80601f016020809104026020016040519081016040528092919081815260200182805461045590611e17565b80156104a25780601f10610477576101008083540402835291602001916104a2565b820191906000526020600020905b81548152906001019060200180831161048557829003601f168201915b505050505081525050826001836104b99190611cee565b815181106104f0577f4e487b7100000000000000000000000000000000000000000000000000000000600052603260045260246000fd5b6020026020010181905250808061050690611e7a565b91505061037e565b508091505090565b6060600460008381526020019081526020016000208054806020026020016040519081016040528092919081815260200182805480156105ab57602002820191906000526020600020905b8160009054906101000a900473ffffffffffffffffffffffffffffffffffffffff1673ffffffffffffffffffffffffffffffffffffffff1681526020019060010190808311610561575b50505050509050919050565b6000819050600081511180156105cf575060f0815111155b61060e576040517f08c379a000000000000000000000000000000000000000000000000000000000815260040161060590611aed565b60405180910390fd5b6000600160005461061f9190611c98565b9050600061062c846112c7565b905060006040518060a001604052803373ffffffffffffffffffffffffffffffffffffffff16815260200184815260200142815260200160008152602001838152509050806001600085815260200190815260200160002060008201518160000160006101000a81548173ffffffffffffffffffffffffffffffffffffffff021916908373ffffffffffffffffffffffffffffffffffffffff160217905550602082015181600101556040820151816002015560608201518160030155608082015181600401908051906020019061070592919061150e565b50905050336002600085815260200190815260200160002060006101000a81548173ffffffffffffffffffffffffffffffffffffffff021916908373ffffffffffffffffffffffffffffffffffffffff160217905550600360003373ffffffffffffffffffffffffffffffffffffffff1673ffffffffffffffffffffffffffffffffffffffff16815260200190815260200160002060008154809291906107ab90611e7a565b91905055506000808154809291906107c290611e7a565b91905055503373ffffffffffffffffffffffffffffffffffffffff167f247b19649778c81aad1923b4b49025b7eed6f664d6a4e802190bfb35724f95a9428460405161080f929190611b4a565b60405180910390a25050505050565b6004602052816000526040600020818154811061083a57600080fd5b906000526020600020016000915091509054906101000a900473ffffffffffffffffffffffffffffffffffffffff1681565b6108746114c9565b600160008381526020019081526020016000206040518060a00160405290816000820160009054906101000a900473ffffffffffffffffffffffffffffffffffffffff1673ffffffffffffffffffffffffffffffffffffffff1673ffffffffffffffffffffffffffffffffffffffff16815260200160018201548152602001600282015481526020016003820154815260200160048201805461091690611e17565b80601f016020809104026020016040519081016040528092919081815260200182805461094290611e17565b801561098f5780601f106109645761010080835404028352916020019161098f565b820191906000526020600020905b81548152906001019060200180831161097257829003601f168201915b5050505050815250509050919050565b6000600360008373ffffffffffffffffffffffffffffffffffffffff1673ffffffffffffffffffffffffffffffffffffffff168152602001908152602001600020549050919050565b60056020528160005260406000206020528060005260406000206000915091509054906101000a900460ff1681565b6000600160008381526020019081526020016000209050600015156005600084815260200190815260200160002060003373ffffffffffffffffffffffffffffffffffffffff1673ffffffffffffffffffffffffffffffffffffffff16815260200190815260200160002060009054906101000a900460ff1615151415610be45760016005600084815260200190815260200160002060003373ffffffffffffffffffffffffffffffffffffffff1673ffffffffffffffffffffffffffffffffffffffff16815260200190815260200160002060006101000a81548160ff02191690831515021790555060046000838152602001908152602001600020339080600181540180825580915050600190039060005260206000200160009091909190916101000a81548173ffffffffffffffffffffffffffffffffffffffff021916908373ffffffffffffffffffffffffffffffffffffffff160217905550806003016000815480929190610b8a90611e7a565b91905055503373ffffffffffffffffffffffffffffffffffffffff167fe3e0bf694ff12d8ec816e50e3f7ccfebb55e4d7597d064fa5e3d62186e7055dd4284604051610bd7929190611b7a565b60405180910390a2610f01565b60006005600084815260200190815260200160002060003373ffffffffffffffffffffffffffffffffffffffff1673ffffffffffffffffffffffffffffffffffffffff16815260200190815260200160002060006101000a81548160ff0219169083151502179055506004600083815260200190815260200160002060016004600085815260200190815260200160002080549050610c839190611cee565b81548110610cba577f4e487b7100000000000000000000000000000000000000000000000000000000600052603260045260246000fd5b9060005260206000200160009054906101000a900473ffffffffffffffffffffffffffffffffffffffff1660046000848152602001908152602001600020610d9960046000868152602001908152602001600020805480602002602001604051908101604052809291908181526020018280548015610d8e57602002820191906000526020600020905b8160009054906101000a900473ffffffffffffffffffffffffffffffffffffffff1673ffffffffffffffffffffffffffffffffffffffff1681526020019060010190808311610d44575b5050505050336113ab565b81548110610dd0577f4e487b7100000000000000000000000000000000000000000000000000000000600052603260045260246000fd5b9060005260206000200160006101000a81548173ffffffffffffffffffffffffffffffffffffffff021916908373ffffffffffffffffffffffffffffffffffffffff16021790555060046000838152602001908152602001600020805480610e61577f4e487b7100000000000000000000000000000000000000000000000000000000600052603160045260246000fd5b6001900381819060005260206000200160006101000a81549073ffffffffffffffffffffffffffffffffffffffff02191690559055806003016000815480929190610eab90611ded565b91905055503373ffffffffffffffffffffffffffffffffffffffff167fffe7871d79d1d334dda1068f3add253b968f9086e165cbc5f690dfba441bf5464284604051610ef8929190611b7a565b60405180910390a25b5050565b60016020528060005260406000206000915090508060000160009054906101000a900473ffffffffffffffffffffffffffffffffffffffff1690806001015490806002015490806003015490806004018054610f6090611e17565b80601f0160208091040260200160405190810160405280929190818152602001828054610f8c90611e17565b8015610fd95780601f10610fae57610100808354040283529160200191610fd9565b820191906000526020600020905b815481529060010190602001808311610fbc57829003601f168201915b5050505050905085565b60606000600360008473ffffffffffffffffffffffffffffffffffffffff1673ffffffffffffffffffffffffffffffffffffffff1681526020019081526020016000205467ffffffffffffffff811115611066577f4e487b7100000000000000000000000000000000000000000000000000000000600052604160045260246000fd5b60405190808252806020026020018201604052801561109f57816020015b61108c6114c9565b8152602001906001900390816110845790505b509050600080600190505b60005481116112a4578473ffffffffffffffffffffffffffffffffffffffff166002600083815260200190815260200160002060009054906101000a900473ffffffffffffffffffffffffffffffffffffffff1673ffffffffffffffffffffffffffffffffffffffff16141561129157600160008281526020019081526020016000206040518060a00160405290816000820160009054906101000a900473ffffffffffffffffffffffffffffffffffffffff1673ffffffffffffffffffffffffffffffffffffffff1673ffffffffffffffffffffffffffffffffffffffff1681526020016001820154815260200160028201548152602001600382015481526020016004820180546111bc90611e17565b80601f01602080910402602001604051908101604052809291908181526020018280546111e890611e17565b80156112355780601f1061120a57610100808354040283529160200191611235565b820191906000526020600020905b81548152906001019060200180831161121857829003601f168201915b505050505081525050838381518110611277577f4e487b7100000000000000000000000000000000000000000000000000000000600052603260045260246000fd5b6020026020010181905250818061128d90611e7a565b9250505b808061129c90611e7a565b9150506110aa565b508192505050919050565b60036020528060005260406000206000915090505481565b6060600082905060005b81518110156113a157611326828281518110611316577f4e487b7100000000000000000000000000000000000000000000000000000000600052603260045260246000fd5b602001015160f81c60f81b611443565b82828151811061135f577f4e487b7100000000000000000000000000000000000000000000000000000000600052603260045260246000fd5b60200101907effffffffffffffffffffffffffffffffffffffffffffffffffffffffffffff1916908160001a905350808061139990611e7a565b9150506112d1565b5080915050919050565b600080600090505b8273ffffffffffffffffffffffffffffffffffffffff16848281518110611403577f4e487b7100000000000000000000000000000000000000000000000000000000600052603260045260246000fd5b602002602001015173ffffffffffffffffffffffffffffffffffffffff161461143957808061143190611e7a565b9150506113b3565b8091505092915050565b6000606160f81b827effffffffffffffffffffffffffffffffffffffffffffffffffffffffffffff1916101580156114a15750607a60f81b827effffffffffffffffffffffffffffffffffffffffffffffffffffffffffffff191611155b156114c05760208260f81c6114b69190611d22565b60f81b90506114c4565b8190505b919050565b6040518060a00160405280600073ffffffffffffffffffffffffffffffffffffffff168152602001600081526020016000815260200160008152602001606081525090565b82805461151a90611e17565b90600052602060002090601f01602090048101928261153c5760008555611583565b82601f1061155557805160ff1916838001178555611583565b82800160010185558215611583579182015b82811115611582578251825591602001919060010190611567565b5b5090506115909190611594565b5090565b5b808211156115ad576000816000905550600101611595565b5090565b60006115c46115bf84611bc8565b611ba3565b9050828152602081018484840111156115dc57600080fd5b6115e7848285611dab565b509392505050565b6000813590506115fe81611fd6565b92915050565b600082601f83011261161557600080fd5b81356116258482602086016115b1565b91505092915050565b60008135905061163d81611fed565b92915050565b60006020828403121561165557600080fd5b6000611663848285016115ef565b91505092915050565b60006020828403121561167e57600080fd5b600082013567ffffffffffffffff81111561169857600080fd5b6116a484828501611604565b91505092915050565b6000602082840312156116bf57600080fd5b60006116cd8482850161162e565b91505092915050565b600080604083850312156116e957600080fd5b60006116f78582860161162e565b9250506020611708858286016115ef565b9150509250929050565b6000806040838503121561172557600080fd5b60006117338582860161162e565b92505060206117448582860161162e565b9150509250929050565b600061175a838361177a565b60208301905092915050565b6000611772838361190f565b905092915050565b61178381611d56565b82525050565b61179281611d56565b82525050565b60006117a382611c19565b6117ad8185611c54565b93506117b883611bf9565b8060005b838110156117e95781516117d0888261174e565b97506117db83611c3a565b9250506001810190506117bc565b5085935050505092915050565b600061180182611c24565b61180b8185611c65565b93508360208202850161181d85611c09565b8060005b85811015611859578484038952815161183a8582611766565b945061184583611c47565b925060208a01995050600181019050611821565b50829750879550505050505092915050565b61187481611d68565b82525050565b600061188582611c2f565b61188f8185611c76565b935061189f818560208601611dba565b6118a881611f50565b840191505092915050565b60006118be82611c2f565b6118c88185611c87565b93506118d8818560208601611dba565b6118e181611f50565b840191505092915050565b60006118f9604383611c87565b915061190482611f61565b606082019050919050565b600060a083016000830151611927600086018261177a565b50602083015161193a60208601826119fb565b50604083015161194d60408601826119fb565b50606083015161196060608601826119fb565b5060808301518482036080860152611978828261187a565b9150508091505092915050565b600060a08301600083015161199d600086018261177a565b5060208301516119b060208601826119fb565b5060408301516119c360408601826119fb565b5060608301516119d660608601826119fb565b50608083015184820360808601526119ee828261187a565b9150508091505092915050565b611a0481611d94565b82525050565b611a1381611d94565b82525050565b6000602082019050611a2e6000830184611789565b92915050565b600060a082019050611a496000830188611789565b611a566020830187611a0a565b611a636040830186611a0a565b611a706060830185611a0a565b8181036080830152611a8281846118b3565b90509695505050505050565b60006020820190508181036000830152611aa88184611798565b905092915050565b60006020820190508181036000830152611aca81846117f6565b905092915050565b6000602082019050611ae7600083018461186b565b92915050565b60006020820190508181036000830152611b06816118ec565b9050919050565b60006020820190508181036000830152611b278184611985565b905092915050565b6000602082019050611b446000830184611a0a565b92915050565b6000604082019050611b5f6000830185611a0a565b8181036020830152611b7181846118b3565b90509392505050565b6000604082019050611b8f6000830185611a0a565b611b9c6020830184611a0a565b9392505050565b6000611bad611bbe565b9050611bb98282611e49565b919050565b6000604051905090565b600067ffffffffffffffff821115611be357611be2611f21565b5b611bec82611f50565b9050602081019050919050565b6000819050602082019050919050565b6000819050602082019050919050565b600081519050919050565b600081519050919050565b600081519050919050565b6000602082019050919050565b6000602082019050919050565b600082825260208201905092915050565b600082825260208201905092915050565b600082825260208201905092915050565b600082825260208201905092915050565b6000611ca382611d94565b9150611cae83611d94565b9250827fffffffffffffffffffffffffffffffffffffffffffffffffffffffffffffffff03821115611ce357611ce2611ec3565b5b828201905092915050565b6000611cf982611d94565b9150611d0483611d94565b925082821015611d1757611d16611ec3565b5b828203905092915050565b6000611d2d82611d9e565b9150611d3883611d9e565b925082821015611d4b57611d4a611ec3565b5b828203905092915050565b6000611d6182611d74565b9050919050565b60008115159050919050565b600073ffffffffffffffffffffffffffffffffffffffff82169050919050565b6000819050919050565b600060ff82169050919050565b82818337600083830152505050565b60005b83811015611dd8578082015181840152602081019050611dbd565b83811115611de7576000848401525b50505050565b6000611df882611d94565b91506000821415611e0c57611e0b611ec3565b5b600182039050919050565b60006002820490506001821680611e2f57607f821691505b60208210811415611e4357611e42611ef2565b5b50919050565b611e5282611f50565b810181811067ffffffffffffffff82111715611e7157611e70611f21565b5b80604052505050565b6000611e8582611d94565b91507fffffffffffffffffffffffffffffffffffffffffffffffffffffffffffffffff821415611eb857611eb7611ec3565b5b600182019050919050565b7f4e487b7100000000000000000000000000000000000000000000000000000000600052601160045260246000fd5b7f4e487b7100000000000000000000000000000000000000000000000000000000600052602260045260246000fd5b7f4e487b7100000000000000000000000000000000000000000000000000000000600052604160045260246000fd5b6000601f19601f8301169050919050565b7f436872616374657220636f756e74206d7573742062652067726561746572207460008201527f68616e203020616e64206c657373207468616e206f7220657175616c20746f2060208201527f3234300000000000000000000000000000000000000000000000000000000000604082015250565b611fdf81611d56565b8114611fea57600080fd5b50565b611ff681611d94565b811461200157600080fd5b5056fea2646970667358221220b3a75345377427c295c09a6fb9caeec02a7b600b9720e84768de832230edadeb64736f6c63430008040033",
  "linkReferences": {},
  "deployedLinkReferences": {}
}